:020000040800F2
:1000000000C00020051B0008591A00085F1A0008EC
:10001000651A00086B1A0008711A00080000000039
:10002000000000000000000000000000771A000837
:10003000831A0008000000008F1A00089B1A0008AD
:100040004D1B00084D1B00084D1B00084D1B0008F0
:100050004D1B00084D1B00084D1B00084D1B0008E0
:100060004D1B00084D1B00084D1B00084D1B0008D0
:100070004D1B0008A91A00084D1B00084D1B000865
:100080004D1B00084D1B00084D1B00084D1B0008B0
:10009000BD1A00084D1B00084D1B00084D1B000831
:1000A0004D1B00084D1B00084D1B00084D1B000890
:1000B000D11A0008E51A00084D1B00084D1B000866
:1000C0004D1B00084D1B00084D1B00084D1B000870
:1000D0004D1B00084D1B00084D1B00084D1B000860
:1000E0004D1B00084D1B00084D1B00084D1B000850
:1000F0004D1B00084D1B00084D1B00084D1B000840
:100100004D1B00084D1B00084D1B00084D1B00082F
:100110004D1B00084D1B00084D1B00084D1B00081F
:100120004D1B00084D1B00084D1B00084D1B00080F
:1001300000000000000000000000000000000000BF
:1001400000000000000000000000000000000000AF
:10015000000000000000000000000000000000009F
:10016000000000000000000000000000000000008F
:10017000000000000000000000000000000000007F
:10018000000000000000000000000000000000006F
:10019000000000000000000000000000000000005F
:1001A000000000000000000000000000000000004F
:1001B000000000000000000000000000000000003F
:1001C000000000000000000000000000000000002F
:1001D000000000000000000000000000000000001F
:0401E0005FF8E0F1F3
:1001E40010B5054C237833B9044B13B10448AFF36D
:1001F40000800123237010BD1802002000000000BD
:1002040090A3000808B5034B1BB103490348AFF39F
:10021400008008BD000000001C02002090A300081C
:1002240080B592B008AF01F091FC00F0F3FA00F051
:10023400A3FC00F083FC00F0E9FB09F0C1FC00F032
:1002440045FB00F02FFC514804F02EFD00237B6297
:100254000EE04F4A7B6A52F823004E4A7B6A32F81A
:1002640013300022194602F0CCFA7B6A01337B6218
:100274007B6A0A2BEDDD4FF400730793464B06931C
:100284004FF480730593444B049380230393424BB0
:10029400029340230193404B009320233E4A1021B4
:1002A4003D4800F0EBFE4FF47F414F2001F08AFA05
:1002B400FF214B2001F086FA01F0D6FA002000F06D
:1002C4006DFE00F059FE00233B623B6A7B60002315
:1002D400FB6107E0314AFB69134400221A70FB6991
:1002E4000133FB61FB69112BF4D90023BB610023AB
:1002F400FB7500233B61A5E00023FB609BE02849DC
:100304003A6913469B0013445B001344CA18FB6804
:1003140013441B78002B00F08B8022493A69134662
:100324009B0013445B001344CA18FB6813441B78F6
:1003340003F0F003F02B37D11A493A6913469B00B6
:1003440013445B001344CA18FB6813441B78FF2B47
:1003540002D10123FB755CE0104B1B7859B21148A4
:100364003A6913469B0013445B001344C218FB68AC
:1003740013441B7803F00F03012202FA03F35BB268
:100384000B435BB2DAB2054B1A7042E07C020020E8
:10039400000000202C000020000C01406806002012
:1003A400E4050020F0A30008A1493A6913469B0024
:1003B40013445B001344CA18FB6813441B78DB081E
:1003C400DBB201339B4AD35C59B299483A6913466C
:1003D4009B0013445B001344C218FB6813441B784E
:1003E40003F00703012202FA03F35BB20B4358B292
:1003F4008F493A6913469B0013445B001344CA189F
:10040400FB6813441B78DB08DBB20133C1B2894AB1
:10041400D15487493A6913469B0013445B00134443
:10042400CA18FB6813441B783B62BB690133BB6188
:10043400FB680133FB60FB680A2B7FF760AF3B6905
:1004440001333B613B690B2B7FF756AFFB7D002BE0
:1004540000F03181784B00221A70764BDB7A03F07E
:100464000403002B02D0754B01221A70714BDB7A06
:1004740003F00203002B02D0704B00221A706D4B64
:10048400DB7A03F00103002B01D001F0EDF9694B95
:100494009B7A5BB2002B01DA01F0D6F9654B1B7B2A
:1004A40003F00203002B06D0634B1B7843F00103D7
:1004B400DAB2614B1A705F4B1B7B03F00403002B11
:1004C40006D05D4B1B7843F00203DAB25A4B1A7024
:1004D400584B1B7B03F00803002B06D0564B1B78AC
:1004E40043F00403DAB2544B1A70524B1B7B03F0F3
:1004F4001003002B06D0504B1B7843F00803DAB2EC
:100504004D4B1A704B4B1B7B03F02003002B06D082
:10051400494B1B7843F01003DAB2474B1A70454B32
:100524001B7B03F04003002B06D0434B1B7843F0A6
:100534002003DAB2404B1A703E4B1B7B5BB2002B9C
:1005440006DA3D4B1B7843F04003DAB23A4B1A709B
:10055400384B5B7B03F00103002B06D0364B1B7832
:1005640063F07F03DAB2344B1A70324BDB7803F05A
:100574002003002B03D0304B1A78314B1A702D4BCB
:100584009B7803F00403002B03D02B4B1A782D4BDC
:100594001A70284B5B7803F02003002B03D0264B02
:1005A4001A78294B1A70234B1B7A03F00403002B8F
:1005B40002D0204B80221A741E4B1B7A03F00803CE
:1005C400002B02D01B4B81221A741A4B1B7A03F0A6
:1005D4001003002B02D0174B82221A74154B1B7A7E
:1005E40003F02003002B02D0124B83221A74114B08
:1005F4001B7A03F04003002B02D00E4B84221A74A2
:100604000C4B1B7A5BB2002B02DA0A4B85221A745C
:10061400084B5B7A03F00103002B02D0054B8622C2
:100624001A74044B5B7A03F00203002B11D00DE023
:10063400F0A3000868060020840600208506002038
:10064400860600208706002088060020694B872242
:100654001A74684B5B7A03F00403002B02D0654BD9
:100664005A221A74634B5B7A03F00803002B02D0FE
:10067400604B64221A745F4B5B7A03F01003002B07
:1006840002D05C4B00221A745A4B5B7A03F02003AD
:10069400002B02D0574B65221A740023BB6007E07D
:1006A400544ABB68134400221A70BB680133BB6010
:1006B400BB680F2BF4D9504B1B68B3F5FA6F14D9F0
:1006C4004D4B00221A604D4B1B781A044C4B1B787F
:1006D4001B0213434B4A12781343184600F05EFC86
:1006E400FB7D002B01D000F047FC474B1B683A6AA6
:1006F4009A4271D0454B1B884FF6E07293422CD03E
:100704004FF6E072934237DC4FF61F02934229D032
:100714004FF61F0293422FDCB3F5784F0FD0B3F599
:10072400784F29DC40F2FF72934220D0B3F5006F7A
:1007340022DA1F2B0CD0B3F5FC6F05D01CE0334B31
:100744004FF4FC621A801CE0304B1F221A8018E020
:100754002E4B4FF6E0721A8013E02C4B4FF61F021B
:100764001A800EE0294B40F2FF721A8009E0274BF1
:100774004FF478421A8004E0244B4FF478421A80F4
:1007840000BF3B6A002B29D03B6A7B607B68032B4C
:100794000ED97B681D2B0BD87B683D337B607B684F
:1007A400DBB21A4A12881146184601F00BF817E01A
:1007B4007B682C2B06D1154B1B881946202001F091
:1007C40001F80DE07B681E2B0AD1104B1B881946DB
:1007D400212000F0F7FF03E000BF02E000BF00E0CB
:1007E40000BF094A3B6A136012220249084808F014
:1007F400F7F868E5680600207C06002087060020DC
:1008040086060020880600208C0600208C0000202C
:100814009CB1002080B596B000AF07F130032822C8
:100824000021184609F0AAFD07F11C0300221A60F2
:100834005A609A60DA601A613B1D00221A605A609D
:100844009A60DA601A615A6101233B634FF4803382
:100854007B630023BB6301233B640223FB644FF4EB
:1008640080333B654FF4E0137B6507F13003184692
:1008740003F036FD0346002B01D000F013FB0F23D9
:10088400FB6102233B6200237B624FF48063BB6203
:100894000023FB6207F11C030221184603F0A2FFA8
:1008A4000346002B01D000F0FDFA10237B600023E7
:1008B400BB613B1D184604F0F1F80346002B01D040
:1008C40000F0F0FA00BF5837BD4680BD80B596B041
:1008D40000AF07F1480300221A605A609A60DA6098
:1008E40007F1400300221A605A6007F12403002232
:1008F4001A605A609A60DA601A615A619A613B1D03
:1009040020220021184609F039FD3E4B3E4A1A6068
:100914003C4B00225A603B4B00229A60394B5922CF
:10092400DA60384B00221A61364B00225A61354B8B
:1009340000229A61334804F067F90346002B01D082
:1009440000F0B0FA4FF48053BB6407F14803194632
:100954002C4804F0E5FD0346002B01D000F0A2FA78
:10096400284804F001FA0346002B01D000F09AFA5B
:1009740000233B6400237B6407F1400319462148AC
:1009840005F07CFA0346002B01D000F08BFA6023BB
:100994007B620023BB620023FB6200233B630023D2
:1009A4007B630023BB630023FB6307F1240304225E
:1009B4001946144804F0F2FC0346002B01D000F061
:1009C40071FA00237B600023BB600023FB600023DB
:1009D4003B6100237B614FF40053BB6100233B6206
:1009E4003B1D1946074805F0B5FA0346002B01D014
:1009F40000F058FA034800F0F9FF00BF5837BD462D
:100A040080BD00BF34020020002C014080B586B0B8
:100A140000AF07F1080300221A605A609A60DA6096
:100A24003B4600221A605A601D4B4FF080421A6008
:100A34001B4B47225A601A4B00229A60184B6322C0
:100A4400DA60174B00221A61154B00229A61144890
:100A540004F0DAF80346002B01D000F023FA4FF437
:100A64008053BB6007F1080319460D4804F058FD94
:100A74000346002B01D000F015FA00233B6000234D
:100A84007B603B461946064805F0F8F90346002BFF
:100A940001D000F007FA00BF1837BD4680BD00BF83
:100AA4007C02002080B586B000AF07F10803002265
:100AB4001A605A609A60DA603B4600221A605A60F3
:100AC4001C4B1D4A1A601B4B00225A60194B002212
:100AD4009A60184B4722DA60164B00221A61154BB4
:100AE40000229A61134804F08FF80346002B01D0CA
:100AF40000F0D8F94FF48053BB6007F1080319469E
:100B04000C4804F00DFD0346002B01D000F0CAF997
:100B140000233B6000237B603B461946054805F0F3
:100B2400ADF90346002B01D000F0BCF900BF183723
:100B3400BD4680BDC40200200004004080B582B0E0
:100B440000AF0C4B5B690B4A43F001035361094B43
:100B54005B6903F001037B607B68002200210D20A8
:100B640001F02DF90D2001F046F900BF0837BD460C
:100B740080BD00BF0010024080B588B000AF07F10F
:100B8400100300221A605A609A60DA60454B9B6930
:100B9400444A43F020039361424B9B6903F02003D2
:100BA400FB60FB683F4B9B693E4A43F0040393613F
:100BB4003C4B9B6903F00403BB60BB68394B9B69E6
:100BC400384A43F010039361364B9B6903F01003DA
:100BD4007B607B68334B9B69324A43F00803936123
:100BE400304B9B6903F008033B603B6800224FF4E1
:100BF400FF712D4801F005FE002230212B4801F041
:100C040000FE002240F2F331294801F0FAFD4FF4CE
:100C1400FF733B6101237B610023BB610223FB6102
:100C240007F110031946204801F040FC30233B61D2
:100C340001237B610023BB610223FB6107F11003E5
:100C440019461A4801F032FC40F2F3333B610123A8
:100C54007B610023BB610223FB6107F1100319468A
:100C6400134801F023FC4FF47C433B6100237B6178
:100C74000223BB6107F1100319460D4801F016FC6D
:100C84004FF47C633B6100237B610223BB6107F16A
:100C940010031946054801F009FC00BF2037BD4682
:100CA40080BD00BF00100240000801400010014058
:100CB400000C014090B585B000AF78607B681B687C
:100CC400B3F1804F40F0D5806C4B1B6801336B4A05
:100CD400136000F061FB0023FB6095E0684B19682A
:100CE4006848FA6813469B0013445B0013440B44A2
:100CF40050F82330002B1ADD614B19686148FA68FB
:100D040013469B0013445B0013440B4450F82330F8
:100D14005B4A1068A3F10B015A4CFA6813469B0016
:100D240013445B001344034444F8231069E0564A17
:100D3400FB6852F823205549FB6831F813301946F3
:100D4400104601F047FD0346012B0DD14C4B1968A9
:100D54004F48FA6813469B0013445B001344034452
:100D64000B4401221A700CE0454B19684848FA6894
:100D740013469B0013445B00134403440B440022BA
:100D84001A703F4B19684348FA6813469B00134492
:100D94005B00134403440B441978394B18683C4CEA
:100DA400FA6813469B0013445B0013442344034432
:100DB4001B78994225D0324B19683248FA68134699
:100DC4009B0013445B0013440B44C82240F82320C7
:100DD4002B4B18682A4B19682D4CFA6813469B0054
:100DE40013445B001344234403441C782948FA68E1
:100DF40013469B0013445B00134403440B442246F4
:100E04001A70FB680133FB60FB680B2B7FF766AF3E
:100E14001B4B1B68204A52F82300194B1B681F4ABE
:100E240032F813300022194601F0EBFC144B1B6816
:100E34000133134A1360124B1968194B83FB0123C6
:100E44005A10CB17D21A13469B0013445B00134469
:100E5400CA1A0B4B1A600A4B1B680F4A52F823003C
:100E6400074B1B680D4A32F813300122194601F072
:100E7400C8FC00BF1437BD4690BD00BF7C060020EF
:100E8400800600205003002044000020740000204D
:100E9400E405002060050020000000202C00002054
:100EA400E9A28B2E80B400AF72B600BFFEE700004B
:100EB40080B485B000AF786039607B68682B27DC2C
:100EC40016497B683A6841F823200023FB601BE045
:100ED4004FF40002FB6842FA03F31A463B681340DE
:100EE400002B01D03C2100E017217A6813465B00F7
:100EF4001344DB0003F13202FB681344084A42F84E
:100F04002310FB680133FB60FB68172BE0DD00E076
:100F140000BF1437BD4680BC704700BFB82E002008
:100F24009006002080B483B000AF0023FB7107E07B
:100F3400FB79104A002142F82310FB790133FB713D
:100F4400FB79312BF4D90023FB7109E0FB7903F61B
:100F5400F213084A002142F82310FB790133FB7194
:100F6400FB79172BF2D900BF00BF0C37BD4680BCFC
:100F7400704700BF9006002080B500AFFFF7D2FF96
:100F840040F60A23034A0421034803F045FF00BF47
:100F940080BD00BF900600203402002080B584B0DC
:100FA40000AF78600023FB6006E07968F868FFF71B
:100FB4007FFFFB680133FB60FB68672BF5DD00BF37
:100FC40000BF1037BD4680BD80B485B000AF034676
:100FD4000A46FB711346BB71104B1A68104B1B6811
:100FE40013445A42C3F30D03C2F30D0258BF5342D4
:100FF400FB600C4AFB681344FA791A700A4AFB68CE
:101004001344BA791A70064B1B680133044A1360FF
:1010140000BF1437BD4680BC704700BF8CB00020B1
:1010240090B00020887000208830002080B400AF89
:101034000F4B1B68002B17D00E4B1B6801330D4A56
:1010440013600C4B1B685A42C3F30D03C2F30D0229
:1010540058BF5342074A1360074B00221A70044BCF
:101064001B68013B024A136000BFBD4680BC704749
:1010740090B000208CB0002088B0002080B584B0EF
:1010840000AFF8607A601A460B467B8113463B81B9
:10109400B54AFB681360B54A7B891380B24B1B6861
:1010A400B24A11880022184601F0ABFBB04A7B68B3
:1010B4001360B04A3B891380AD4B1B68AD4A11885D
:1010C4000122184601F09DFBAB4A3B6A1360AB4A10
:1010D400BB8C1380A84B1B68A84A118801221846B0
:1010E40001F08FFBA64ABB6A1360A64ABB8D13802E
:1010F400A34B1B68A34A11880122184601F081FB07
:10110400A14A3B6B1360A14ABB8E13809E4B1B68A4
:101114009E4A11880122184601F073FB9C4ABB6960
:1011240013609C4ABB8B1380994B1B68994A1188A6
:101134000022184601F065FBFA210220FFF744FF64
:10114400FA210220FFF740FFFA210220FFF73CFFBB
:10115400FA210220FFF738FFFA210320FFF734FFBA
:1011640011210020FFF730FFFA210420FFF72CFFA4
:10117400FA210420FFF728FFFA210420FFF724FFB7
:10118400FA210420FFF720FFFA210420FFF71CFFB7
:1011940036210020FFF718FFA0210120FFF714FFDC
:1011A4003A210020FFF710FF05210120FFF70CFF73
:1011B400B2210020FFF708FF0C210120FFF704FFF4
:1011C4000C210120FFF700FF00210120FFF7FCFEA6
:1011D40033210120FFF7F8FE33210120FFF7F4FE4D
:1011E400B7210020FFF7F0FE35210120FFF7ECFEC8
:1011F400BB210020FFF7E8FE19210120FFF7E4FEE0
:10120400C0210020FFF7E0FE2C210120FFF7DCFEC7
:10121400C2210020FFF7D8FE01210120FFF7D4FEF0
:10122400C3210020FFF7D0FE12210120FFF7CCFEDE
:10123400C4210020FFF7C8FE20210120FFF7C4FECF
:10124400C6210020FFF7C0FE0F210120FFF7BCFEDE
:10125400D0210020FFF7B8FEA4210120FFF7B4FE3F
:10126400A1210120FFF7B0FEE0210020FFF7ACFE32
:10127400D0210120FFF7A8FE04210120FFF7A4FEDE
:101284000D210120FFF7A0FE11210120FFF79CFE94
:1012940013210120FFF798FE2B210120FFF794FE74
:1012A4003F210120FFF790FE54210120FFF78CFE1F
:1012B4004C210120FFF788FE18210120FFF784FE4E
:1012C4000D210120FFF780FE0B210120FFF77CFE9A
:1012D4001F210120FFF778FE23210120FFF774FE70
:1012E400E1210020FFF770FED0210120FFF76CFE02
:1012F40004210120FFF768FE0C210120FFF764FEA2
:1013040011210120FFF760FE13210120FFF75CFE8D
:101314002C210120FFF758FE3F210120FFF754FE46
:1013240044210120FFF750FE51210120FFF74CFE1C
:101334002F210120FFF748FE1F210120FFF744FE63
:101344001F210120FFF740FE20210120FFF73CFE72
:1013540023210120FFF738FE29210020FFF734FE66
:1013640000BF1037BD4680BD583000205C300020DF
:101374006030002064300020703000207430002081
:10138400783000207C300020803000208430002021
:10139400683000206C30002080B500AF7F4B1B68A4
:1013A400002B40F3F9807E4B1B78032B00F2F18075
:1013B40001A252F823F000BFCD130008FF14000867
:1013C400671500087F150008764B1B68764AD35CC6
:1013D400042B00F2E08001A252F823F0F513000878
:1013E4003314000871140008A5140008D914000867
:1013F4006E4B1B686E4A11880022184601F001FAF0
:101404006C4B1B686C4A11880122184601F0F9F9EB
:101414006A4B1B686A4A11880022184601F0F1F9E8
:10142400684B80221A705E4B01221A7064E05F4B95
:101434001B685F4A11880122184601F0E2F95D4BEE
:101444001B685D4A11880122184601F0DAF95B4BEA
:101454001B685B4A11880022184601F0D2F9594BE7
:1014640080221A704E4B01221A7045E0514B1B68C2
:10147400514A11880022184601F0C3F9494B1B68F0
:10148400514AD35C002B08D0464B1B684E4AD25CB1
:10149400013AD1B24C4AD1542EE0FFF7C7FD7BE0AC
:1014A400404B1B68484AD35C002B08D03D4B1B685B
:1014B400454AD25C013AD1B2434AD1546CE03D4B27
:1014C4001B683D4A11880122184601F09AF9FFF77A
:1014D400ADFD61E0334B1B683B4AD35C002B08D065
:1014E400304B1B68384AD25C013AD1B2364AD154E7
:1014F40002E0FFF79BFD4FE04DE0324B1B78002BE1
:1015040024D0274B02221A70264B1B682E4AD25C29
:101514002C4B1B781340DBB2002B08D02B4B1B68E1
:101524002B4A11880122184601F06BF907E0274B7A
:101534001B68274A11880022184601F062F9214BE2
:101544001B785B08DAB21F4B1A7025E01B4B1B6833
:101554001B4A11880122184601F053F9FFF766FD72
:101564001AE00F4B03221A701A4B1B681A4A11888F
:101574000122184601F045F90EE0094B01221A70C8
:10158400144B1B68144A11880022184601F039F9DB
:1015940002E000BF00E000BF80BD00BF90B00020AB
:1015A40088B000208CB000208870002070300020AB
:1015B40074300020683000206C3000207830002027
:1015C4007C3000209800002088300020603000200B
:1015D40064300020583000205C30002080B588B092
:1015E40000AFF860B9607A603B600023BB61002300
:1015F4007B617B68013B7B603B68013B3B6028234C
:10160400BB6132237B610023BB6100237B612A2100
:101614000020FFF7D9FCFA68BB6913441B12DBB244
:1016240019460120FFF7D0FCFB68DAB2BB69DBB2D4
:101634001344DBB219460120FFF7C6FCFA687B6845
:101644001A44BB6913441B12DBB219460120FFF78D
:10165400BBFCFB68DAB27B68DBB21344DAB2BB6969
:10166400DBB21344DBB219460120FFF7ADFC2B219A
:101674000020FFF7A9FCBA687B6913441B12DBB294
:1016840019460120FFF7A0FCBB68DAB27B69DBB224
:101694001344DBB219460120FFF796FCBA683B6895
:1016A4001A447B6913441B12DBB219460120FFF76D
:1016B4008BFCBB68DAB23B68DBB21344DAB27B69F9
:1016C400DBB21344DBB219460120FFF77DFC2C2169
:1016D4000020FFF779FC0023FB6118E0FB695B0045
:1016E400BA6A13441B881B0A9BB2DBB21946012059
:1016F400FFF76AFCFB695B00BA6A13441B88DBB220
:1017040019460120FFF760FCFB690133FB617B682C
:101714003A6802FB03F3FA699A42DFDB00BF00BFB9
:101724002037BD4680BD000080B588B002AFF860A8
:10173400B96011461A460B46FB711346BB80002361
:101744007B612CE000233B6123E0FB79203B1B4AB7
:101754001B011A447B6913441B781A463B6942FAFD
:1017640003F303F00103002B08D07B69DA003B6923
:1017740013441349BA8821F8132007E07B69DA007F
:101784003B6913440E493A8C21F813203B69013319
:101794003B613B69072BD8DD7B6901337B617B6946
:1017A4000F2BCFDD064B009310230822B968F8688D
:1017B400FFF714FF00BF1837BD4680BD74A40008AE
:1017C40094B0002090B585B002AF03460A46FB7181
:1017D4001346BB801A4B18681A4B1968BB88DB4345
:1017E4009BB2BC88FA7900932346FFF79DFF144B04
:1017F4001B680833124A1360114B1B68802B0EDDE3
:101804000F4B04221A600F4B1B6810330D4A1360F0
:101814000C4B1B68802B02DD0A4B04221A60084B18
:101824001868084B1968BB88DB439BB2BA880093DD
:1018340013462322FFF778FF00BF0C37BD4690BD47
:10184400900000209400002080B500AF044B1B687A
:10185400044A11880122184600F0D3FF00BF80BD5E
:10186400803000208430002080B500AF044B1B681A
:10187400044A11880022184600F0C3FF00BF80BD4F
:10188400803000208430002080B485B000AF154B38
:101894009B69144A43F001039361124B9B6903F063
:1018A4000103BB60BB680F4BDB690E4A43F08053F6
:1018B400D3610C4BDB6903F080537B607B680A4B7C
:1018C4005B68FB60FB6823F0E063FB60FB6843F04C
:1018D4000073FB60044AFB68536000BF1437BD46C5
:1018E40080BC7047001002400000014080B586B003
:1018F40000AF78607B681B68374A934235D1374B19
:101904009B69364A43F400639361344B9B6903F447
:1019140000637B617B69324B324A1A60304B102280
:101924005A602F4B00229A602D4B8022DA602C4B98
:101934004FF400721A612A4B4FF400625A61284B2B
:1019440000229A61264B4FF44052DA61244800F099
:101954006DFA0346002B01D0FFF7A4FA7B68204AF6
:101964009A621F4A7B68536232E07B681B68B3F15A
:10197400804F14D1194BDB69184A43F00103D3613A
:10198400164BDB6903F001033B613B690022002134
:101994001C2000F014FA1C2000F02DFA18E07B68DB
:1019A4001B68114A934213D10C4BDB690B4A43F079
:1019B4000203D361094BDB6903F00203FB60FB689C
:1019C400002200211D2000F0FAF91D2000F013FA76
:1019D40000BF1837BD4680BD002C014000100240F6
:1019E4000C030020300002400004004080B588B0A1
:1019F40000AF786007F1100300221A605A609A6001
:101A0400DA607B681B68104A934218D10F4B9B69BC
:101A14000E4A43F0040393610C4B9B6903F00403E7
:101A2400FB60FB684FF400733B6102237B6102237C
:101A3400FB6107F110031946054800F037FD00BFAC
:101A44002037BD4680BD00BF002C0140001002407D
:101A54000008014080B400AFFEE780B400AFFEE7A9
:101A640080B400AFFEE780B400AFFEE780B400AFFF
:101A7400FEE780B400AF00BFBD4680BC704780B4B1
:101A840000AF00BFBD4680BC704780B400AF00BF4C
:101A9400BD4680BC704780B500AF00F09DF800BF24
:101AA40080BD000080B500AF024800F095FA00BF89
:101AB40080BD00BF0C03002080B500AF024800F0D9
:101AC400DDFF00BF80BD00BF60B6002080B500AF61
:101AD400024803F05BFB00BF80BD00BF7C02002016
:101AE40080B500AF024803F051FB00BF80BD00BFCA
:101AF400C402002080B400AF00BFBD4680BC704764
:101B0400FFF7F8FF0B480C490C4A002302E0D458B5
:101B1400C4500433C4188C42F9D3094A094C002335
:101B240001E013600432A242FBD308F003FCFEF789
:101B340077FB7047000000201802002090AA0008DC
:101B44001802002064B90020FEE7000080B500AF51
:101B5400084B1B68074A43F010031360032000F08E
:101B640023F90F2000F008F8FFF78EFE0023184633
:101B740080BD00BF0020024080B582B000AF786015
:101B8400124B1A68124B1B7819464FF47A73B3FB45
:101B9400F1F3B2FBF3F3184600F03BF90346002BD4
:101BA40001D001230EE07B680F2B0AD8002279684C
:101BB4004FF0FF3000F003F9064A7B6813600023FE
:101BC40000E0012318460837BD4680BD9C00002074
:101BD400A4000020A000002080B400AF054B1B78B7
:101BE4001A46054B1B681344034A136000BFBD46E5
:101BF40080BC7047A400002094B1002080B400AFE2
:101C0400024B1B681846BD4680BC704794B1002047
:101C140080B485B000AF78607B6803F00703FB6095
:101C24000C4BDB68BB60BA684FF6FF031340BB6024
:101C3400FB681A02BB68134343F0BF6343F40033E9
:101C4400BB60044ABB68D36000BF1437BD4680BC88
:101C5400704700BF00ED00E080B400AF044BDB68C8
:101C64001B0A03F007031846BD4680BC704700BF3B
:101C740000ED00E080B483B000AF0346FB7197F938
:101C84000730002B0BDBFB7903F01F02064997F9A1
:101C940007305B09012000FA02F241F8232000BF5B
:101CA4000C37BD4680BC704700E100E080B483B0CF
:101CB40000AF03463960FB7197F90730002B0ADB4C
:101CC4003B68DAB20C4997F907301201D2B20B44DF
:101CD40083F800230AE03B68DAB20849FB7903F091
:101CE4000F03043B1201D2B20B441A7600BF0C3727
:101CF400BD4680BC704700BF00E100E000ED00E09D
:101D040080B489B000AFF860B9607A60FB6803F012
:101D14000703FB61FB69C3F10703042B28BF0423FA
:101D2400BB61FB690433062B02D9FB69033B00E06A
:101D340000237B614FF0FF32BB6902FA03F3DA43FD
:101D4400BB681A407B699A404FF0FF317B6901FA06
:101D540003F3D9437B680B40134318462437BD462D
:101D640080BC704780B582B000AF78607B68013B6F
:101D7400B3F1807F01D301230FE00A4A7B68013B62
:101D840053600F214FF0FF30FFF790FF054B002207
:101D94009A60044B07221A60002318460837BD4690
:101DA40080BD00BF10E000E080B582B000AF786075
:101DB4007868FFF72DFF00BF0837BD4680BD80B5AA
:101DC40086B000AF0346B9607A60FB7300237B6181
:101DD400FFF742FF78617A68B9687869FFF790FF86
:101DE400024697F90F3011461846FFF75FFF00BF10
:101DF4001837BD4680BD80B582B000AF0346FB7185
:101E040097F907301846FFF735FF00BF0837BD467E
:101E140080BD80B582B000AF78607868FFF7A2FF1C
:101E2400034618460837BD4680BD000080B485B01F
:101E340000AF78600023FB607B68002B01D1012395
:101E440059E07B681B681A462D4B9A420FD87B6871
:101E54001B681A462B4B13442B4AA2FB03231B0972
:101E64009A007B681A647B68284ADA630EE07B6810
:101E74001B681A46264B1344234AA2FB03231B095F
:101E84009A007B681A647B68224ADA637B680222C0
:101E940083F821207B681B681B68FB60FB6823F4C4
:101EA4007F5323F03003FB607B685A687B689B6830
:101EB4001A437B68DB681A437B681B691A437B6897
:101EC4005B691A437B689B691A437B68DB6913432C
:101ED400FA681343FB607B681B68FA681A607B68C6
:101EE40000229A637B68012283F821207B68002208
:101EF40083F82020002318461437BD4680BC704761
:101F040007040240F8FFFDBFCDCCCCCC000002405A
:101F1400F8FBFDBF0004024080B586B000AFF86056
:101F2400B9607A603B600023FB75FB6893F820304E
:101F3400012B01D102234BE0FB68012283F820200E
:101F4400FB6893F82130DBB2012B3AD1FB68022203
:101F540083F82120FB6800229A63FB681B681A68D7
:101F6400FB681B6822F001021A603B687A68B96852
:101F7400F86800F06DFAFB68DB6A002B08D0FB6898
:101F84001B681A68FB681B6842F00E021A600FE0B7
:101F9400FB681B681A68FB681B6822F004021A605D
:101FA400FB681B681A68FB681B6842F00A021A6027
:101FB400FB681B681A68FB681B6842F001021A6020
:101FC40005E0FB68002283F820200223FB75FB7DDB
:101FD40018461837BD4680BD80B584B000AF786020
:101FE4007B68DB6B1B68FB607B681B681B68BB60E2
:101FF4007B681B6C04229A40FB681340002B00F0A2
:10200400F180BB6803F00403002B00F0EB807B68D5
:102014001B681B6803F02003002B07D17B681B6837
:102024001A687B681B6822F004021A607B681B68CC
:102034001A465F4B9A4258D97B681B685D4A9342A3
:102044004FD07B681B685C4A934248D07B681B680E
:102054005A4A934240D07B681B68594A934238D00D
:102064007B681B68574A934230D07B681B68564A8A
:10207400934228D07B681B684D4A934220D07B68EA
:102084001B68524A934219D07B681B68504A93429A
:1020940012D07B681B684F4A93420AD07B681B6846
:1020A4004D4A934202D14FF480431BE04FF4802306
:1020B40018E04FF4806315E0402313E0042311E09B
:1020C4004FF080630EE04FF480030BE04FF4802365
:1020D40008E04FF4804305E04FF4806302E04023BE
:1020E40000E004233D4A536057E07B681B68314A93
:1020F40093424FD07B681B682F4A934248D07B6839
:102104001B682E4A934240D07B681B682C4A93423A
:1021140038D07B681B682B4A934230D07B681B689D
:10212400294A934228D07B681B68214A934220D0D5
:102134007B681B68254A934219D07B681B68244A34
:10214400934212D07B681B68224A93420AD07B6870
:102154001B68214A934202D14FF480431BE04FF4A1
:10216400802318E04FF4806315E0402313E0042338
:1021740011E04FF080630EE04FF480030BE04FF466
:10218400802308E04FF4804305E04FF4806302E0CD
:10219400402300E00423124A53607B68DB6A002B6F
:1021A40000F036817B68DB6A7868984730E100BFCD
:1021B40080000240080002401C000240300002403F
:1021C40044000240580002406C00024008040240EF
:1021D4001C04024030040240440402400004024053
:1021E400000002407B681B6C02229A40FB6813408B
:1021F400002B00F0DD80BB6803F00203002B00F02D
:10220400D7807B681B681B6803F02003002B0BD16D
:102214007B681B681A687B681B6822F00A021A60D4
:102224007B68012283F821207B681B681A467B4B5C
:102234009A4258D97B681B68794A93424FD07B688D
:102244001B68784A934248D07B681B68764A93425D
:1022540040D07B681B68754A934238D07B681B6802
:10226400734A934230D07B681B68724A934228D0E9
:102274007B681B68694A934220D07B681B686E4A5E
:10228400934219D07B681B686C4A934212D07B68D6
:102294001B686B4A93420AD07B681B68694A934265
:1022A40002D14FF400531BE04FF4003318E04FF415
:1022B400007315E0202313E0022311E04FF00073B4
:1022C4000EE04FF400130BE04FF4003308E04FF43A
:1022D400005305E04FF4007302E0202300E00223E2
:1022E400594A536057E07B681B684D4A93424FD06C
:1022F4007B681B684B4A934248D07B681B684A4AF8
:10230400934240D07B681B68484A934238D07B682C
:102314001B68474A934230D07B681B68454A934206
:1023240028D07B681B683D4A934220D07B681B6899
:10233400414A934219D07B681B68404A934212D0A9
:102344007B681B683E4A93420AD07B681B683D4AFF
:10235400934202D14FF400531BE04FF4003318E0D2
:102364004FF4007315E0202313E0022311E04FF033
:1023740000730EE04FF400130BE04FF4003308E059
:102384004FF4005305E04FF4007302E0202300E013
:1023940002232E4A53607B68002283F820207B6846
:1023A4009B6A002B34D07B689B6A786898472FE03F
:1023B4007B681B6C08229A40FB681340002B28D0D2
:1023C400BB6803F00803002B23D07B681B681A68E2
:1023D4007B681B6822F00E021A607B681A6C7B68AB
:1023E400DB6B012101FA02F25A607B6801229A63D5
:1023F4007B68012283F821207B68002283F8202057
:102404007B681B6B002B04D07B681B6B7868984738
:1024140000BF00BF1037BD4680BD00BF8000024032
:10242400080002401C000240300002404400024008
:10243400580002406C000240080402401C040240A0
:102444003004024044040240000402400000024000
:1024540080B485B000AFF860B9607A603B60FB6817
:102464001A6CFB68DB6B012101FA02F25A60FB680B
:102474001B683A685A60FB685B68102B08D1FB68DC
:102484001B687A689A60FB681B68BA68DA6007E0C0
:10249400FB681B68BA689A60FB681B687A68DA6034
:1024A40000BF1437BD4680BC7047000080B48BB0B9
:1024B40000AF7860396000237B6200233B6279E1DE
:1024C40001227B6A02FA03F3FB613B681B68FA6929
:1024D4001340BB61BA69FB699A4240F068813B686A
:1024E4005B68964A93425ED0944A934275D8944A64
:1024F400934258D0924A93426FD8924A934252D010
:10250400904A934269D8904A93424CD08E4A93425F
:1025140063D88E4A934246D08C4A93425DD8122B9C
:102524002AD8122B59D801A252F823F0AB2500085F
:102534008525000897250008D9250008DF2500080F
:10254400DF250008DF250008DF250008DF25000857
:10255400DF250008DF250008DF250008DF25000847
:10256400DF250008DF250008DF250008DF25000837
:102574008D250008A1250008754A934213D02CE04C
:102584003B68DB683B6229E03B68DB6804333B6201
:1025940024E03B68DB6808333B621FE03B68DB6890
:1025A4000C333B621AE03B689B68002B02D1042386
:1025B4003B6213E03B689B68012B05D108233B6217
:1025C4007B68FA691A6109E008233B627B68FA694F
:1025D4005A6103E000233B6200E000BFBB69FF2BAC
:1025E40001D87B6801E07B6804337B61BB69FF2B06
:1025F40002D87B6A9B0002E07B6A083B9B003B613C
:102604007B691A680F213B6901FA03F3DB431A4023
:10261400396A3B6901FA03F31A437B691A603B6820
:102624005B6803F08053002B00F0C180494B9B6929
:10263400484A43F001039361464B9B6903F001034D
:10264400BB60BB68444A7B6A9B08023352F8233060
:10265400FB607B6A03F003039B000F2202FA03F37F
:10266400DB43FA681340FB607B683C4A93421FD00B
:102674007B683B4A934219D07B683A4A934213D011
:102684007B68394A93420DD07B68384A934207D01D
:102694007B68374A934201D105230AE0062308E008
:1026A400042306E0032304E0022302E0012300E004
:1026B40000237A6A02F0030292009340FA681343FB
:1026C400FB6025497B6A9B080233FA6841F82320A2
:1026D4003B685B6803F48013002B06D0254B9A6893
:1026E4002449BB6913438B6006E0224B9A68BB699B
:1026F400DB43204913408B603B685B6803F40013A1
:10270400002B06D01B4BDA681A49BB691343CB6014
:1027140006E0184BDA68BB69DB4316491340CB600B
:102724003B685B6803F40033002B25D0114B5A68D7
:102734001049BB6913434B6025E000BF0000321011
:1027440000003110000022100000211000001210BF
:102754000000111000100240000001400008014078
:10276400000C014000100140001401400018014019
:10277400001C014000040140154B5A68BB69DB434F
:10278400134913404B603B685B6803F48033002BB0
:1027940006D00F4B1A680E49BB6913430B6006E061
:1027A4000B4B1A68BB69DB43094913400B607B6A16
:1027B40001337B623B681A687B6A22FA03F3002BBD
:1027C4007FF47EAE00BF00BF2C37BD4680BC70478F
:1027D4000004014080B485B000AF78600B467B8074
:1027E4007B689A687B881340002B02D00123FB731B
:1027F40001E00023FB73FB7B18461437BD4680BC05
:10280400704780B483B000AF78600B467B8013467A
:102814007B707B78002B03D07A887B681A6103E095
:102824007B881A047B681A6100BF0C37BD4680BCE4
:102834007047F0B58BB006AF78607B68002B01D190
:102844000123F1E07B6893F8A932DBB2002B06D1B7
:102854007B68002283F8A822786807F0E5FA7B6891
:10286400032283F8A9227B681B68184603F0FBFB4C
:102874007B681B683B607E686D4606F110040FCCD4
:102884000FC523682B60331D0ECB386803F0C5FBDE
:102894000346002B05D07B68022283F8A92201237A
:1028A400C2E07B681B680021184603F0F6FB002396
:1028B400FB7340E0FB7B79685A1C13469B0013446E
:1028C400DB000B44013301221A70FB7B79685A1C2C
:1028D40013469B001344DB000B44FA7B1A70FB7B0A
:1028E40079685A1C13469B001344DB000B440333E2
:1028F40000221A70FA7B796813469B001344DB00AC
:102904000B44383300221A60FA7B796813469B0023
:102914001344DB000B443C3300221A60FA7B7968D1
:1029240013469B001344DB000B44403300221A601F
:10293400FB7B0133FB73FA7B7B685B689A42B9D3F8
:102944000023FB7344E0FA7B796813469B0013442D
:10295400DB000B4403F2691300221A70FA7B7968D6
:1029640013469B001344DB000B4403F5B473FA7B5A
:102974001A70FA7B796813469B001344DB000B44FE
:1029840003F26B1300221A70FA7B796813469B00DA
:102994001344DB000B4403F5BC7300221A60FA7B7A
:1029A400796813469B001344DB000B4403F5BE73A4
:1029B40000221A60FA7B796813469B001344DB00FB
:1029C4000B4403F5C07300221A60FB7B0133FB73D5
:1029D400FA7B7B685B689A42B5D37B681B683B6073
:1029E4007E686D4606F110040FCC0FC523682B607A
:1029F400331D0ECB386803F05CFB0346002B05D077
:102A04007B68022283F8A92201230DE07B6800225F
:102A140083F824207B68012283F8A9227B681B6841
:102A2400184605F0DEFD002318461437BD46F0BDF8
:102A340080B582B000AF78607B6893F8A832012B30
:102A440001D1022316E07B68012283F8A8227B6867
:102A54001B68184603F0F1FA0121786807F033FC8B
:102A64007B681B68184605F0B2FD7B68002283F87A
:102A7400A822002318460837BD4680BD80B588B01B
:102A840000AF78607B681B68184605F0B4FDB86138
:102A9400BB6903F40043002B03D0786800F004FB07
:102AA40019E1BB6903F48063002B13D07B681B68B6
:102AB400B3F844309AB27B681B6822F4806292B205
:102AC400A3F84420786807F02AFA0021786800F017
:102AD40005F900E1BB6903F48043002B0CD07B684B
:102AE4001B68B3F844309AB27B681B6822F48042B6
:102AF40092B2A3F84420EEE0BB6903F40053002B28
:102B04000CD07B681B68B3F844309AB27B681B68AE
:102B140022F4005292B2A3F84420DCE0BB6903F42F
:102B24008053002B27D07B681B68B3F840309AB2DF
:102B34007B681B6822F0040292B2A3F840207B68F1
:102B44001B68B3F840309AB27B681B6822F0080215
:102B540092B2A3F84020786807F01AFA7B681B68E1
:102B6400B3F844309AB27B681B6822F4805292B264
:102B7400A3F84420AFE0BB6903F40063002B00F02A
:102B840083800023FB7710E07B681B681A46FB7F79
:102B94009B001A44FB7F128892B25B0020333B44B3
:102BA40023F8182CFB7F0133FB77FB7F072BEBD932
:102BB4007B681B68B3F840309AB27B681B6842F0AC
:102BC400010292B2A3F840207B681B68B3F840303E
:102BD4009AB27B681B6822F0010292B2A3F84020EB
:102BE40000BF7B681B68B3F844309BB203F4806376
:102BF400002BF6D07B681B68B3F844309AB27B682C
:102C04001B6822F4806292B2A3F844200023FB776D
:102C14000FE0FB7F7A6812681146FA7F92000A443B
:102C24005B0020333B4433F8183C1380FB7F0133B3
:102C3400FB77FB7F072BECD97B681B68B3F840302C
:102C44009AB27B681B6842F0080292B2A3F8402053
:102C54007B681B68B3F844309AB27B681B6822F423
:102C6400006292B2A3F844207B681B68B3F840303A
:102C74009AB27B681B6842F0040292B2A3F8402027
:102C8400786807F06BF926E0BB6903F40073002B46
:102C94000FD07B681B68B3F844309AB27B681B681A
:102CA40022F4007292B2A3F84420786807F029F95C
:102CB40011E0BB6903F48073002B0CD07B681B68A4
:102CC400B3F844309AB27B681B6822F4807292B2E3
:102CD400A3F8442000BF2037BD4680BD80B582B034
:102CE40000AF78600B46FB707B6893F8A832012B29
:102CF40001D1022313E07B68012283F8A8227B68B8
:102D0400FA7883F824207B681B68FA781146184601
:102D140005F04AFC7B68002283F8A82200231846A9
:102D24000837BD4680BD80B584B000AF78600846E2
:102D340011461A460346FB700B463B801346BB7094
:102D44000023FB7297F90330002B0EDAFB7803F0B3
:102D540007035A1C13469B001344DB007A68134490
:102D6400FB60FB6801225A700EE0FB7803F0070257
:102D740013469B001344DB0003F5B4737A681344D1
:102D8400FB60FB6800225A70FB7803F00703DAB299
:102D9400FB681A703A88FB681A61FB68BA78DA70C3
:102DA400BB78022B02D1FB6800221A717B6893F86E
:102DB400A832012B01D102230EE07B68012283F8A3
:102DC400A8227B681B68F968184603F093F97B68AE
:102DD400002283F8A822FB7A18461037BD4680BD2E
:102DE40080B584B000AF78600B46FB7097F9033070
:102DF400002B0EDAFB7803F007035A1C13469B00E2
:102E04001344DB007A681344FB60FB6801225A70A8
:102E14000EE0FB7803F0070213469B001344DB002B
:102E240003F5B4737A681344FB60FB6800225A709C
:102E3400FB7803F00703DAB2FB681A707B6893F837
:102E4400A832012B01D102230EE07B68012283F812
:102E5400A8227B681B68F968184603F00BFD7B68A1
:102E6400002283F8A822002318461037BD4680BDEF
:102E740080B586B000AFF8607A603B600B46FB72A9
:102E8400FB7A03F0070213469B001344DB0003F5AF
:102E9400B473FA6813447B617B697A685A617B690D
:102EA4003A689A617B690022DA617B6900225A7070
:102EB400FB7A03F00703DAB27B691A70FB681B68BC
:102EC4007969184603F0C2FE002318461837BD4638
:102ED40080BD80B586B000AFF8607A603B600B4679
:102EE400FB72FB7A03F007035A1C13469B0013443E
:102EF400DB00FA6813447B617B697A685A617B69F9
:102F04003A689A617B69012283F824207B693A68D4
:102F14001A627B690022DA617B6901225A70FB7AAA
:102F240003F00703DAB27B691A70FB681B687969DE
:102F3400184603F08BFE002318461837BD4680BDA3
:102F440080B584B000AF78600B46FB70FB7803F06B
:102F540007027B685B689A4201D901234CE097F928
:102F64000330002B0EDAFB7803F007035A1C1346D8
:102F74009B001344DB007A681344FB60FB68012266
:102F84005A700CE0FA7813469B001344DB0003F5F7
:102F9400B4737A681344FB60FB6800225A70FB68C0
:102FA40001229A70FB7803F00703DAB2FB681A7007
:102FB4007B6893F8A832012B01D102231CE07B68C3
:102FC400012283F8A8227B681B68F968184605F07B
:102FD400EEF9FB7803F00703002B08D17B681A682D
:102FE4007B6803F52C731946104605F013FB7B68C8
:102FF400002283F8A822002318461037BD4680BD5E
:1030040080B584B000AF78600B46FB70FB7803F0AA
:103014000F027B685B689A4201D9012340E097F96B
:103024000330002B0EDAFB7803F007035A1C134617
:103034009B001344DB007A681344FB60FB680122A5
:103044005A700EE0FB7803F0070213469B0013440A
:10305400DB0003F5B4737A681344FB60FB68002259
:103064005A70FB6800229A70FB7803F00703DAB207
:10307400FB681A707B6893F8A832012B01D10223F4
:103084000EE07B68012283F8A8227B681B68F9683C
:10309400184605F0DCF97B68002283F8A822002397
:1030A40018461037BD4680BD80B596B000AF786035
:1030B400BFE37B681B68B3F84430A7F84E30B7F819
:1030C4004E30DBB203F00F0387F84D3097F84D30E4
:1030D400002B40F07981B7F84E3003F01003002B39
:1030E40052D17B681B681B889BB223F4E14323F015
:1030F4007003FB817B681A68FB896FEA43436FEABC
:1031040053439BB213807B6828337B657B681B68C1
:10311400B3F850309BB21A467B6D1B78DB00134426
:1031240002335B007A681268134403F580631B88DA
:10313400C3F309027B6DDA617B6D5A697B6DDB69D0
:103144001A447B6D5A610021786806F0C0FE7B68E2
:1031540093F82430DBB2002B00F06B837B6D9B690A
:10316400002B40F066837B6893F82430DBB263F075
:103174007F03DAB27B681B6892B2A3F84C207B68A9
:10318400002283F8242054E37B6803F5B4737B6541
:103194007B681B681B88A7F84A30B7F84A3003F4E9
:1031A4000063002B34D07B681B68B3F850309BB2AB
:1031B4001A467B6D1B78DB00134406335B007A6888
:1031C4001268134403F580631B88C3F309027B6D03
:1031D400DA617B6818687B6803F52C717B6DDA888B
:1031E4007B6DDB699BB205F065FA7B681B681B8805
:1031F4009AB240F68F7313403B827B681B683A8A0D
:1032040042F0800292B21A80786806F033FE10E32E
:10321400B7F94A30002B80F20C837B681B681B884B
:103224009AB240F68F731340FB837B681B68FA8B5A
:1032340042F0800292B21A807B681B68B3F8503067
:103244009BB21A467B6D1B78DB00134406335B008C
:103254007A681268134403F580631B88C3F3090278
:103264007B6DDA617B6DDB69002B19D07B6D5B694B
:10327400002B15D07B6818687B6D59697B6DDA88E3
:103284007B6DDB699BB205F015FA7B6D5A697B6D2A
:10329400DB691A447B6D5A610021786806F0FCFDF5
:1032A4007B681B681B88A7F84A30B7F84A3003F4D8
:1032B4000063002B40F0BD82B7F84A3003F440535A
:1032C400B3F5405F00F0B5827B681B68BB617B6827
:1032D4001B68B3F850309BB21A46BB691344BB61F8
:1032E400BB6903F20C437B617B691B889BB2C3F30C
:1032F40009039AB27B691A807B6D1B693E2B1DD929
:103304007B6D1B695B097B647B6D1B6903F01F0389
:10331400002B02D17B6C013B7B647B691B889AB2D6
:103324007B6C9BB29B029BB213439BB26FEA4343F9
:103334006FEA53439AB27B691A8026E07B6D1B695E
:10334400002B0AD17B691B889BB26FEA43436FEA67
:1033540053439AB27B691A8017E07B6D1B695B0843
:103364007B647B6D1B6903F00103002B02D07B6C33
:1033740001337B647B691B889AB27B6C9BB29B0292
:103384009BB213439AB27B691A807B681B681B88C3
:103394009BB223F4804323F070037B827B8A83F403
:1033A40080537B827B8A83F400537B827B681A6818
:1033B4007B8A43F07F4343F47F0343F4004343F0A9
:1033C40080039BB2138034E27B681B681A4697F82B
:1033D4004D309B0013441B88A7F84A30B7F94A3094
:1033E400002B80F2FC807B681B681A4697F84D30EE
:1033F4009B0013441B889AB240F68F731340A7F8BE
:1034040048307B681B681A4697F84D309B0013447C
:10341400B7F8482042F0800292B21A8097F84D2003
:1034240013469B001344DB0003F5B4737A6813441A
:103434007B657B6D1B7B002B25D17B681B68B3F8F8
:1034440050309BB21A467B6D1B78DB001344063365
:103454005B007A681268134403F580631B88C3F326
:103464000903A7F85030B7F85030002B00F09280D1
:103474007B6818687B6D59697B6DDA88B7F85030C2
:1034840005F018F986E07B6DDB78022B0AD1B7F8DA
:103494004A301A46796D786800F0D9F90346A7F8DE
:1034A400503077E07B681B681A467B6D1B789B0065
:1034B40013441B889BB223F4E04323F07003A7F862
:1034C40052307B681B681A467B6D1B789B001A443C
:1034D400B7F8523043F07F4343F47F0343F400438F
:1034E40043F0C0039BB213807B681B681A467B6D54
:1034F4001B789B0013441B889BB203F48043002B6E
:1035040024D07B681B68B3F850309BB21A467B6D9D
:103514001B78DB00134402335B007A68126813449F
:1035240003F580631B88C3F30903A7F85030B7F889
:103534005030002B2ED07B6818687B6D59697B6DE9
:103544001A89B7F8503005F0B5F823E07B681B689A
:10355400B3F850309BB21A467B6D1B78DB001344E2
:1035640006335B007A681268134403F580631B8892
:10357400C3F30903A7F85030B7F85030002B09D033
:103584007B6818687B6D59697B6D5A89B7F8503030
:1035940005F090F87B6DDA69B7F850301A447B6D0A
:1035A400DA617B6D5A69B7F850301A447B6D5A6101
:1035B4007B6D9B69002B05D0B7F850207B6D1B6990
:1035C4009A4206D27B6D1B781946786806F064FC33
:1035D40005E07B681B68796D184603F037FBB7F884
:1035E4004A3003F08003002B00F0238197F84D301C
:1035F4005A1C13469B001344DB007A6813447B6512
:103604007B681B681A4697F84D309B0013441B884F
:103614009BB223F4E14323F07003A7F842307B68A4
:103624001B681A4697F84D309B001A44B7F842308D
:103634006FEA43436FEA53439BB213807B6DDB789D
:10364400012B40F0A2807B6D00229A617B6D1B7B75
:10365400002B00F09380B7F84A3003F04003002BAE
:1036640046D07B6D5B78002B26D17B681B687B6220
:103674007B681B68B3F850309BB21A467B6A1344CC
:103684007B627B6D1B781A017B6A134403F204434B
:103694003B623B6A1B889BB2C3F309039AB23B6A41
:1036A4001A803B6A1B889BB26FEA43436FEA534319
:1036B4009AB23B6A1A8061E07B6D5B78012B5DD125
:1036C4007B681B68FB627B681B68B3F850309BB255
:1036D4001A46FB6A1344FB627B6D1B781A01FB6A72
:1036E400134403F20443BB62BB6A00221A8045E020
:1036F4007B681B68FB637B6D5B78002B26D17B6842
:103704001B687B637B681B68B3F850309BB21A4616
:103714007B6B13447B637B6D1B781A017B6B1344B7
:1037240003F20C433B633B6B1B889BB2C3F309035B
:103734009AB23B6B1A803B6B1B889BB26FEA434384
:103744006FEA53439AB23B6B1A8017E07B6D5B7848
:10375400012B13D17B681B68B3F850309BB21A4617
:10376400FB6B1344FB637B6D1B781A01FB6B1344E7
:1037740003F20C43BB63BB6B00221A807B6D1B7886
:103784001946786806F0A3FB53E0B7F84A3003F40F
:103794008073002B46D17B681B68B3F850309BB212
:1037A4001A467B6D1B78DB00134402335B007A6896
:1037B4001268134403F580631B88C3F30903A7F855
:1037C40040307B6D9A69B7F840309A4207D97B6DD7
:1037D4009A69B7F84030D21A7B6D9A6102E07B6D2A
:1037E40000229A617B6D9B69002B06D17B6D1B784F
:1037F4001946786806F06BFB1BE07B6D5A69B7F8D5
:1038040040301A447B6D5A617B6DDA69B7F84030F9
:103814001A447B6DDA617B681B68796D184603F086
:1038240015FA06E0B7F84A301A46796D786800F060
:103834001BF97B681B68B3F844309BB21BB2002BA6
:10384400FFF637AC002318465837BD4680BD80B517
:1038540088B000AFF860B9601346FB80FB8803F4BE
:103864008043002B7ED0FB681B68B3F850309BB2BA
:103874001A46BB681B78DB00134402335B00FA680A
:103884001268134403F580631B88C3F309037B8325
:10389400BB689A697B8B9A4206D3BB689A697B8B17
:1038A400D21ABB689A6102E0BB6800229A61BB68C5
:1038B4009B69002B23D1FB681B681A46BB681B78E5
:1038C4009B0013441B889BB223F4804323F07003B2
:1038D4003B833B8B83F400533B83FB681B681A4692
:1038E400BB681B789B001A443B8B43F07F4343F433
:1038F4007F0343F4004343F080039BB21380FB88AF
:1039040003F04003002B1FD0FB681B681A46BB68FA
:103914001B789B0013441B889BB223F4E04323F0E1
:103924007003FB82FB681B681A46BB681B789B000C
:103934001A44FB8A43F07F4343F47F0343F4004378
:1039440043F0C0039BB213807B8B002B00F0878075
:10395400FB681868BB685969BB681A897B8B04F0DB
:10396400A9FE7CE0FB681B68B3F850309BB21A4692
:10397400BB681B78DB00134406335B00FA681268EB
:10398400134403F580631B88C3F309037B83BB687B
:103994009A697B8B9A4206D3BB689A697B8BD21A4D
:1039A400BB689A6102E0BB6800229A61BB689B69AC
:1039B400002B23D1FB681B681A46BB681B789B004D
:1039C40013441B889BB223F4804323F07003FB83CE
:1039D400FB8B83F40053FB83FB681B681A46BB68AC
:1039E4001B789B001A44FB8B43F07F4343F47F0313
:1039F40043F4004343F080039BB21380FB8803F03D
:103A04004003002B1FD1FB681B681A46BB681B7858
:103A14009B0013441B889BB223F4E04323F0700300
:103A2400BB83FB681B681A46BB681B789B001A445F
:103A3400BB8B43F07F4343F47F0343F4004343F0E1
:103A4400C0039BB213807B8B002B08D0FB681868E3
:103A5400BB685969BB685A897B8B04F02BFE7B8B4E
:103A640018462037BD4680BD80B5A4B000AFF860CD
:103A7400B9601346FB80FB8803F04003002B00F081
:103A8400DD81FB681B68B3F850309BB21A46BB68F3
:103A94001B78DB00134402335B00FA68126813449A
:103AA40003F580631B88C3F30903A7F88630BB685A
:103AB4009A69B7F886309A4207D9BB689A69B7F809
:103AC4008630D21ABB689A6102E0BB6800229A6110
:103AD400BB689B69002B40F0B980BB685B78002B06
:103AE40026D1FB681B68FB62FB681B68B3F8503087
:103AF4009BB21A46FB6A1344FB62BB681B781A012B
:103B0400FB6A134403F20443BB62BB6A1B889BB287
:103B1400C3F309039AB2BB6A1A80BB6A1B889BB2BF
:103B24006FEA43436FEA53439AB2BB6A1A801AE0BE
:103B3400BB685B78012B16D1FB681B687B63FB6851
:103B44001B68B3F850309BB21A467B6B13447B63FB
:103B5400BB681B781A017B6B134403F204433B6379
:103B64003B6B00221A80FB681B687B62BB685B7836
:103B7400002B26D1FB681B68FB61FB681B68B3F84C
:103B840050309BB21A46FB691344FB61BB681B7837
:103B94001A01FB69134403F20C43BB61BB691B8824
:103BA4009BB2C3F309039AB2BB691A80BB691B8831
:103BB4009BB26FEA43436FEA53439AB2BB691A80DC
:103BC40017E0BB685B78012B13D1FB681B68B3F863
:103BD40050309BB21A467B6A13447B62BB681B78E5
:103BE4001A017B6A134403F20C433B623B6A0022D2
:103BF4001A80BB681B781946F86806F068F9FB88D8
:103C040003F48043002B00F0FC82FB681B681A4617
:103C1400BB681B789B0013441B889BB223F4E043CE
:103C240023F07003FB82FB681B681A46BB681B7891
:103C34009B001A44FB8A43F07F4343F47F0343F41D
:103C4400404343F080039BB21380DAE2FB8803F421
:103C54008043002B21D0FB681B681A46BB681B7885
:103C64009B0013441B889BB223F4E04323F07003AE
:103C7400A7F88A30FB681B681A46BB681B789B0050
:103C84001A44B7F88A3043F07F4343F47F0343F484
:103C9400404343F080039BB21380BB6893F8243005
:103CA400012B40F0AE82BB685A69B7F886301A44DB
:103CB400BB685A61BB68DA69B7F886301A44BB68D6
:103CC400DA61BB681A6ABB681B699A420BD3BB688A
:103CD4001B69C7F88C30BB681A6AD7F88C30D21AC3
:103CE400BB681A6217E0BB681B6A002B08D1B7F8DF
:103CF4008630C7F88C30BB68002283F824200AE0A1
:103D0400BB68002283F82420BB681B6AC7F88C3088
:103D1400BB6800221A62BB685B78002B65D1FB6824
:103D24001B68FB63FB681B68B3F850309BB21A46F0
:103D3400FB6B1344FB63BB681B781A01FB6B1344D6
:103D440003F20443BB63BB6B1B889BB2C3F309033D
:103D54009AB2BB6B1A80D7F88C303E2B1DD9D7F89A
:103D64008C305B09BB64D7F88C3003F01F03002B45
:103D740002D1BB6C013BBB64BB6B1B889AB2BB6CAE
:103D84009BB29B029BB213439BB26FEA43436FEA1D
:103D940053439AB2BB6B1A8044E0D7F88C30002BA3
:103DA4000AD1BB6B1B889BB26FEA43436FEA534350
:103DB4009AB2BB6B1A8035E0D7F88C305B08BB64D1
:103DC400D7F88C3003F00103002B02D0BB6C013315
:103DD400BB64BB6B1B889AB2BB6C9BB29B029BB24D
:103DE40013439AB2BB6B1A801CE0BB685B78012B4F
:103DF40018D1FB681B687B64FB681B68B3F8503000
:103E04009BB21A467B6C13447B64BB681B781A0113
:103E14007B6C134403F204433B64D7F88C309AB2AE
:103E24003B6C1A80FB681868BB685969BB681A89BF
:103E3400D7F88C309BB204F0F8FBE2E1FB681B6816
:103E4400B3F850309BB21A46BB681B78DB001344AE
:103E540006335B00FA681268134403F580631B8819
:103E6400C3F30903A7F88630BB689A69B7F88630AC
:103E74009A4207D3BB689A69B7F88630D21ABB68EE
:103E84009A6102E0BB6800229A61BB689B69002BBF
:103E940040F0C080BB685B78002B26D1FB681B68B0
:103EA400FB67FB681B68B3F850309BB21A46FB6F84
:103EB4001344FB67BB681B781A01FB6F134403F2BE
:103EC4000443BB67BB6F1B889BB2C3F309039AB25D
:103ED400BB6F1A80BB6F1B889BB26FEA43436FEAC8
:103EE40053439AB2BB6F1A801AE0BB685B78012B0C
:103EF40016D1FB681B687B66FB681B68B3F85030FF
:103F04009BB21A467B6E13447B66BB681B781A010E
:103F14007B6E134403F204433B663B6E00221A801B
:103F2400FB681B687B67BB685B78002B2BD1FB6845
:103F34001B68FB66FB681B68B3F850309BB21A46DB
:103F4400FB6E1344FB66BB681B781A01FB6E1344BB
:103F540003F20C43C7F88030D7F880301B889BB23B
:103F6400C3F309039AB2D7F880301A80D7F88030A7
:103F74001B889BB26FEA43436FEA53439AB2D7F864
:103F840080301A8017E0BB685B78012B13D1FB6883
:103F94001B68B3F850309BB21A467B6F13447B679F
:103FA400BB681B781A017B6F134403F20C433B6715
:103FB4003B6F00221A80BB681B781946F86805F02D
:103FC40086FFFB8803F48043002B40F01A81FB68D2
:103FD4001B681A46BB681B789B0013441B889BB262
:103FE40023F4E04323F07003A7F88830FB681B68D0
:103FF4001A46BB681B789B001A44B7F8883043F014
:104004007F4343F47F0343F4404343F080039BB274
:104014001380F6E0FB8803F48043002B21D1FB6876
:104024001B681A46BB681B789B0013441B889BB211
:1040340023F4E04323F07003A7F84E30FB681B68B9
:104044001A46BB681B789B001A44B7F84E3043F0FD
:104054007F4343F47F0343F4404343F080039BB224
:104064001380BB6893F82430012B40F0CA80BB68EE
:104074005A69B7F886301A44BB685A61BB68DA6972
:10408400B7F886301A44BB68DA61BB681A6ABB6841
:104094001B699A420BD3BB681B69C7F88C30BB6899
:1040A4001A6AD7F88C30D21ABB681A6217E0BB6858
:1040B4001B6A002B08D1B7F88630C7F88C30BB6870
:1040C400002283F824200AE0BB681B6AC7F88C30FE
:1040D400BB6800221A62BB68002283F82420FB68B4
:1040E4001B687B65BB685B78002B65D1FB681B682C
:1040F400FB65FB681B68B3F850309BB21A46FB6D36
:104104001344FB65BB681B781A01FB6D134403F26F
:104114000C43BB65BB6D1B889BB2C3F309039AB206
:10412400BB6D1A80D7F88C303E2B1DD9D7F88C3054
:104134005B09BB66D7F88C3003F01F03002B02D158
:10414400BB6E013BBB66BB6D1B889AB2BB6E9BB258
:104154009B029BB213439BB26FEA43436FEA534300
:104164009AB2BB6D1A8041E0D7F88C30002B0AD18B
:10417400BB6D1B889BB26FEA43436FEA53439AB209
:10418400BB6D1A8032E0D7F88C305B08BB66D7F879
:104194008C3003F00103002B02D0BB6E0133BB66ED
:1041A400BB6D1B889AB2BB6E9BB29B029BB213433E
:1041B4009AB2BB6D1A8019E0BB685B78012B15D1EC
:1041C400FB681B68B3F850309BB21A467B6D1344EE
:1041D4007B65BB681B781A017B6D134403F20C43A7
:1041E4003B65D7F88C309AB23B6D1A80FB6818682F
:1041F400BB685969BB685A89D7F88C309BB204F004
:1042040014FAFB681B681A46BB681B789B001344AE
:104214001B889BB223F4E04323F04003BB82BB8A98
:1042240083F01003BB82BB8A83F02003BB82FB684C
:104234001B681A46BB681B789B001A44BB8A43F070
:104244007F4343F47F0343F4004343F080039BB272
:104254001380002318469037BD4680BD80B487B0D4
:1042640000AFF8607B600B467B8113463B817B8902
:1042740003F080039BB2002B0BD07B8903F0070370
:104284005A1C13469B001344DB00FA6813447B61F9
:1042940009E07A8913469B001344DB0003F5B473E9
:1042A400FA6813447B613B89002B07D17B690022A8
:1042B4001A737B689AB27B69DA800BE07B6901220E
:1042C4001A737B689AB27B691A817B681B0C9AB259
:1042D4007B695A81002318461C37BD4680BC704751
:1042E40080B586B000AF78607B68002B01D10123D4
:1042F40072E27B681B6803F00103002B00F08780E7
:10430400924B5B6803F00C03042B0CD08F4B5B685F
:1043140003F00C03082B12D18C4B5B6803F480333D
:10432400B3F5803F0BD1894B1B6803F40033002B9A
:104334006CD07B685B68002B68D101234CE27B68FE
:104344005B68B3F5803F06D1804B1B687F4A43F41A
:10435400803313602EE07B685B68002B0CD17B4BB1
:104364001B687A4A23F480331360784B1B68774ABE
:1043740023F4802313601DE07B685B68B3F5A02FF2
:104384000CD1724B1B68714A43F4802313606F4B4A
:104394001B686E4A43F4803313600BE06B4B1B685D
:1043A4006A4A23F480331360684B1B68674A23F41A
:1043B400802313607B685B68002B13D0FDF71EFC21
:1043C400386108E0FDF71AFC02463B69D31A642BF6
:1043D40001D9032300E25D4B1B6803F40033002B77
:1043E400F0D014E0FDF70AFC386108E0FDF706FCA4
:1043F40002463B69D31A642B01D90323ECE1534BE6
:104404001B6803F40033002BF0D100E000BF7B688D
:104414001B6803F00203002B63D04C4B5B6803F072
:104424000C03002B0BD0494B5B6803F00C03082BE7
:104434001CD1464B5B6803F48033002B16D1434BED
:104444001B6803F00203002B05D07B681B69012B5A
:1044540001D00123C0E13D4B1B6823F0F8027B68C7
:104464005B69DB00394913430B603AE07B681B69E5
:10447400002B20D0364B01221A60FDF7BFFB3861B8
:1044840008E0FDF7BBFB02463B69D31A022B01D9B6
:104494000323A1E12D4B1B6803F00203002BF0D092
:1044A4002A4B1B6823F0F8027B685B69DB00274911
:1044B40013430B6015E0264B00221A60FDF79EFBA8
:1044C400386108E0FDF79AFB02463B69D31A022BD8
:1044D40001D9032380E11D4B1B6803F00203002B69
:1044E400F0D17B681B6803F00803002B3AD07B688B
:1044F4009B69002B19D0174B01221A60FDF77EFB34
:10450400386108E0FDF77AFB02463B69D31A022BB7
:1045140001D9032360E10D4B5B6A03F00203002B16
:10452400F0D0012000F09CFA1CE00A4B00221A6033
:10453400FDF764FB38610FE0FDF760FB02463B6961
:10454400D31A022B08D9032346E100BF001002400E
:104554000000424280044242924B5B6A03F0020331
:10456400002BE9D17B681B6803F00403002B00F0E7
:10457400A6800023FB758B4BDB6903F08053002B73
:104584000DD1884BDB69874A43F08053D361854B57
:10459400DB6903F08053BB60BB680123FB75824B6E
:1045A4001B6803F48073002B18D17F4B1B687E4A71
:1045B40043F480731360FDF721FB386108E0FDF7D5
:1045C4001DFB02463B69D31A642B01D9032303E183
:1045D400754B1B6803F48073002BF0D07B68DB6899
:1045E400012B06D16F4B1B6A6E4A43F00103136221
:1045F4002DE07B68DB68002B0CD16A4B1B6A694A8F
:1046040023F001031362674B1B6A664A23F0040319
:1046140013621CE07B68DB68052B0CD1614B1B6AC1
:10462400604A43F0040313625E4B1B6A5D4A43F025
:10463400010313620BE05B4B1B6A5A4A23F001032C
:104644001362584B1B6A574A23F0040313627B68B6
:10465400DB68002B15D0FDF7D1FA38610AE0FDF7CD
:10466400CDFA02463B69D31A41F28832934201D90A
:104674000323B1E04B4B1B6A03F00203002BEED083
:1046840014E0FDF7BBFA38610AE0FDF7B7FA024619
:104694003B69D31A41F28832934201D903239BE048
:1046A400404B1B6A03F00203002BEED1FB7D012B70
:1046B40005D13C4BDB693B4A23F08053D3617B68D3
:1046C400DB69002B00F08780364B5B6803F00C033A
:1046D400082B61D07B68DB69022B46D1334B002267
:1046E4001A60FDF78BFA386108E0FDF787FA024695
:1046F4003B69D31A022B01D903236DE0294B1B68B4
:1047040003F00073002BF0D17B681B6AB3F5803F84
:1047140008D1244B5B6823F400327B689B682149F1
:1047240013434B601F4B5B6823F474127B68196A54
:104734007B685B6A0B431B4913434B601B4B012291
:104744001A60FDF75BFA386108E0FDF757FA024694
:104754003B69D31A022B01D903233DE0114B1B689B
:1047640003F00073002BF0D035E0104B00221A60E8
:10477400FDF744FA386108E0FDF740FA02463B6968
:10478400D31A022B01D9032326E0064B1B6803F03E
:104794000073002BF0D11EE07B68DB69012B07D18D
:1047A400012319E000100240007000406000424202
:1047B4000B4B5B68FB60FB6803F480327B681B6A0D
:1047C4009A4206D1FB6803F470127B685B6A9A42D2
:1047D40001D0012300E0002318461837BD4680BDF0
:1047E4000010024080B584B000AF786039607B6807
:1047F400002B01D10123D0E06A4B1B6803F00703AF
:104804003A689A4210D9674B1B6823F0070265493E
:104814003B6813430B60634B1B6803F007033A6860
:104824009A4201D00123B8E07B681B6803F00203BD
:10483400002B20D07B681B6803F00403002B05D0F9
:10484400594B5B68584A43F4E06353607B681B68C8
:1048540003F00803002B05D0534B5B68524A43F422
:1048640060535360504B5B6823F0F0027B689B6895
:104874004D4913434B607B681B6803F00103002B15
:1048840040D07B685B68012B07D1474B1B6803F45E
:104894000033002B15D101237FE07B685B68022B7A
:1048A40007D1414B1B6803F00073002B09D101238E
:1048B40073E03D4B1B6803F00203002B01D101237D
:1048C4006BE0394B5B6823F003027B685B68364915
:1048D40013434B60FDF792F9F8600AE0FDF78EF997
:1048E4000246FB68D31A41F28832934201D903236A
:1048F40053E02D4B5B6803F00C027B685B689B0004
:104904009A42EBD1274B1B6803F007033A689A429B
:1049140010D2244B1B6823F0070222493B6813433F
:104924000B60204B1B6803F007033A689A4201D0DE
:10493400012332E07B681B6803F00403002B08D0DA
:10494400194B5B6823F4E0627B68DB681649134308
:104954004B607B681B6803F00803002B09D0124BE3
:104964005B6823F460527B681B69DB000E491343C8
:104974004B6000F021F802460B4B5B681B0903F007
:104984000F030A49CB5C22FA03F3094A1360094B6B
:104994001B681846FDF7F0F8002318461037BD468B
:1049A40080BD00BF002002400010024064AA00083D
:1049B4009C000020A000002080B487B000AF00233A
:1049C400FB600023BB6000237B6100237B6000232A
:1049D4003B611E4B5B68FB60FB6803F00C03042B1C
:1049E40002D0082B03D027E0194B3B6127E0FB687A
:1049F4009B0C03F00F03174AD35C7B60FB6803F442
:104A04008033002B10D0114B5B685B0C03F0010367
:104A1400114AD35CBB607B680D4A03FB02F2BB689E
:104A2400B2FBF3F37B6104E07B680C4A02FB03F303
:104A34007B617B693B6102E0054B3B6100BF3B69E5
:104A440018461C37BD4680BC704700BF00100240AA
:104A540000127A0074AA000884AA000800093D0024
:104A640080B485B000AF78600A4B1B680A4AA2FB89
:104A740003235B0A7A6802FB03F3FB6000BFFB6855
:104A84005A1EFA60002BF9D100BF00BF1437BD468F
:104A940080BC70479C000020D34D621080B586B066
:104AA40000AF786000233B610023FB607B681B68D8
:104AB40003F00103002B7DD00023FB754F4BDB6912
:104AC40003F08053002B0DD14C4BDB694B4A43F070
:104AD4008053D361494BDB6903F08053BB60BB68EF
:104AE4000123FB75464B1B6803F48073002B18D11C
:104AF400434B1B68424A43F480731360FDF77EF80E
:104B0400386108E0FDF77AF802463B69D31A642B52
:104B140001D903236DE03A4B1B6803F48073002B27
:104B2400F0D0364B1B6A03F44073FB60FB68002B28
:104B34002ED07B685B6803F44073FA689A4227D0EE
:104B44002E4B1B6A23F44073FB602E4B01221A6028
:104B54002C4B00221A60294AFB681362FB6803F09D
:104B64000103002B14D0FDF749F838610AE0FDF782
:104B740045F802463B69D31A41F28832934201D97F
:104B8400032336E01D4B1B6A03F00203002BEED017
:104B94001A4B1B6A23F440727B685B681749134302
:104BA4000B62FB7D012B05D1144BDB69134A23F007
:104BB4008053D3617B681B6803F00203002B08D089
:104BC4000E4B5B6823F440427B689B680B4913439C
:104BD4004B607B681B6803F01003002B08D0074B65
:104BE4005B6823F480027B685B69044913434B6070
:104BF400002318461837BD4680BD00BF0010024090
:104C0400007000404004424280B582B000AF78603A
:104C14007B68002B01D1012341E07B6893F83D3090
:104C2400DBB2002B06D17B68002283F83C20786835
:104C3400FCF75CFE7B68022283F83D207B681A68DF
:104C44007B6804331946104600F038FE7B68012265
:104C540083F846207B68012283F83E207B6801228A
:104C640083F83F207B68012283F840207B6801227F
:104C740083F841207B68012283F842207B6801226B
:104C840083F843207B68012283F844207B68012257
:104C940083F845207B68012283F83D2000231846D1
:104CA4000837BD4680BD000080B485B000AF786091
:104CB4007B6893F83D30DBB2012B01D0012344E043
:104CC4007B68022283F83D207B681B68DA687B6876
:104CD4001B6842F00102DA607B681B681D4A93423C
:104CE40018D07B681B681C4A934213D07B681B68EE
:104CF400B3F1804F0ED07B681B68184A934209D0E9
:104D04007B681B68164A934204D07B681B68154A6B
:104D1400934211D17B681B689B6803F00703FB6017
:104D2400FB68062B10D07B681B681A687B681B68BD
:104D340042F001021A6007E07B681B681A687B680E
:104D44001B6842F001021A60002318461437BD465E
:104D540080BC7047002C0140003401400004004036
:104D640000080040000C004080B582B000AF7860BD
:104D74007B68002B01D1012341E07B6893F83D302F
:104D8400DBB2002B06D17B68002283F83C207868D4
:104D940000F039F87B68022283F83D207B681A68AA
:104DA4007B6804331946104600F088FD7B680122B5
:104DB40083F846207B68012283F83E207B68012229
:104DC40083F83F207B68012283F840207B6801221E
:104DD40083F841207B68012283F842207B6801220A
:104DE40083F843207B68012283F844207B680122F6
:104DF40083F845207B68012283F83D200023184670
:104E04000837BD4680BD80B483B000AF786000BF72
:104E14000C37BD4680BC704780B586B000AFF860E3
:104E2400B9607A607B800023FB75BB68002B09D1D5
:104E3400FB6893F83E30DBB2022B0CBF0123002346
:104E4400DBB222E0BB68042B09D1FB6893F83F3046
:104E5400DBB2022B0CBF01230023DBB215E0BB68DD
:104E6400082B09D1FB6893F84030DBB2022B0CBF4E
:104E740001230023DBB208E0FB6893F84130DBB286
:104E8400022B0CBF01230023DBB2002B01D0022331
:104E940067E1BB68002B09D1FB6893F83E30DBB2B5
:104EA400012B0CBF01230023DBB222E0BB68042BDF
:104EB40009D1FB6893F83F30DBB2012B0CBF01230F
:104EC4000023DBB215E0BB68082B09D1FB6893F81B
:104ED4004030DBB2012B0CBF01230023DBB208E01E
:104EE400FB6893F84130DBB2012B0CBF0123002394
:104EF400DBB2002B24D07B68002B02D07B88002BF4
:104F040001D101232DE1BB68002B04D1FB680222EF
:104F140083F83E2016E0BB68042B04D1FB68022210
:104F240083F83F200EE0BB68082B04D1FB68022203
:104F340083F8402006E0FB68022283F8412001E068
:104F440001230EE1BB680C2B00F2AE8001A252F8E3
:104F540023F000BF8D4F0008AD500008AD5000088D
:104F6400AD500008D54F0008AD500008AD50000802
:104F7400AD5000081D500008AD500008AD500008A9
:104F8400AD50000865500008FB685B6A774A9A6276
:104F9400FB685B6A764ADA62FB685B6A754A1A6385
:104FA400FB68586A7968FB681B6834331A467B8847
:104FB400FCF7B2FF0346002B01D00123D1E0FB68CC
:104FC4001B68DA68FB681B6842F40072DA606EE002
:104FD400FB689B6A654A9A62FB689B6A644ADA6268
:104FE400FB689B6A634A1A63FB68986A7968FB6882
:104FF4001B6838331A467B88FCF78EFF0346002B68
:1050040001D00123ADE0FB681B68DA68FB681B680C
:1050140042F48062DA604AE0FB68DB6A534A9A62CF
:10502400FB68DB6A524ADA62FB68DB6A514A1A633C
:10503400FB68D86A7968FB681B683C331A467B882E
:10504400FCF76AFF0346002B01D0012389E0FB68CB
:105054001B68DA68FB681B6842F40062DA6026E0C9
:10506400FB681B6B414A9A62FB681B6B404ADA621D
:10507400FB681B6B3F4A1A63FB68186B7968FB6813
:105084001B6840331A467B88FCF746FF0346002B17
:1050940001D0012365E0FB681B68DA68FB681B68C4
:1050A40042F48052DA6002E00123FB7500BFFB7D0D
:1050B400002B55D1FB681B680122B968184600F023
:1050C400B9FEFB681B682C4A934204D0FB681B683A
:1050D4002A4A934201D1012300E00023002B07D088
:1050E400FB681B685A6CFB681B6842F400425A64F4
:1050F400FB681B68204A934218D0FB681B681F4A50
:10510400934213D0FB681B68B3F1804F0ED0FB6849
:105114001B681B4A934209D0FB681B68194A9342D7
:1051240004D0FB681B68184A934211D1FB681B68C2
:105134009B6803F007033B613B69062B10D0FB68B7
:105144001B681A68FB681B6842F001021A6007E0DA
:10515400FB681B681A68FB681B6842F001021A604E
:10516400FB7D18461837BD4680BD00BFB157000807
:10517400595800081F570008002C01400034014012
:105184000004004000080040000C004080B582B0DC
:1051940000AF78607B681B681B6903F00203022B75
:1051A40022D17B681B68DB6803F00203022B1BD14E
:1051B4007B681B686FF002021A617B6801221A7710
:1051C4007B681B689B6903F00303002B03D078689A
:1051D40000F076FA05E0786800F069FA786800F083
:1051E40078FA7B6800221A777B681B681B6903F0D6
:1051F4000403042B22D17B681B68DB6803F00403DF
:10520400042B1BD17B681B686FF004021A617B6856
:1052140002221A777B681B689B6903F44073002B96
:1052240003D0786800F04CFA05E0786800F03FFAA3
:10523400786800F04EFA7B6800221A777B681B6856
:105244001B6903F00803082B22D17B681B68DB6809
:1052540003F00803082B1BD17B681B686FF008025E
:105264001A617B6804221A777B681B68DB6903F088
:105274000303002B03D0786800F022FA05E0786875
:1052840000F015FA786800F024FA7B6800221A7797
:105294007B681B681B6903F01003102B22D17B6809
:1052A4001B68DB6803F01003102B1BD17B681B68A1
:1052B4006FF010021A617B6808221A777B681B68FA
:1052C400DB6903F44073002B03D0786800F0F8F92D
:1052D40005E0786800F0EBF9786800F0FAF97B688B
:1052E40000221A777B681B681B6903F00103012BFA
:1052F4000ED17B681B68DB6803F00103012B07D127
:105304007B681B686FF001021A617868FBF7D2FCB6
:105314007B681B681B6903F08003802B0ED17B68BC
:105324001B68DB6803F08003802B07D17B681B6854
:105334006FF080021A61786800F066FE7B681B6873
:105344001B6903F04003402B0ED17B681B68DB68AC
:1053540003F04003402B07D17B681B686FF04002C9
:105364001A61786800F0C7F97B681B681B6903F051
:105374002003202B0ED17B681B68DB6803F020031D
:10538400202B07D17B681B686FF020021A617868B4
:1053940000F031FE00BF0837BD4680BD80B586B041
:1053A40000AFF860B9607A600023FB75FB6893F87E
:1053B4003C30012B01D10223AEE0FB68012283F8CB
:1053C4003C207B680C2B00F29F8001A252F823F052
:1053D400095400080D5500080D5500080D55000826
:1053E400495400080D5500080D5500080D550008D6
:1053F4008B5400080D5500080D5500080D55000884
:10540400CB540008FB681B68B968184600F0D0FA52
:10541400FB681B689A69FB681B6842F008029A6182
:10542400FB681B689A69FB681B6822F004029A6196
:10543400FB681B689969BB681A69FB681B680A43A7
:105444009A6164E0FB681B68B968184600F020FBA9
:10545400FB681B689A69FB681B6842F400629A61E6
:10546400FB681B689A69FB681B6822F480629A6176
:10547400FB681B689969BB681B691A02FB681B6897
:105484000A439A6143E0FB681B68B968184600F058
:1054940073FBFB681B68DA69FB681B6842F008024F
:1054A400DA61FB681B68DA69FB681B6822F0040296
:1054B400DA61FB681B68D969BB681A69FB681B68F9
:1054C4000A43DA6123E0FB681B68B968184600F0F8
:1054D400C7FBFB681B68DA69FB681B6842F400625F
:1054E400DA61FB681B68DA69FB681B6822F4806276
:1054F400DA61FB681B68D969BB681B691A02FB681F
:105504001B680A43DA6102E00123FB7500BFFB68F4
:10551400002283F83C20FB7D18461837BD4680BD29
:1055240080B584B000AF786039600023FB737B687A
:1055340093F83C30012B01D10223B4E07B680122B3
:1055440083F83C207B68022283F83D207B681B683B
:105554009B68BB60BB6823F07703BB60BB6823F424
:105564007F43BB607B681B68BA689A603B681B68B2
:10557400B3F5005F3ED0B3F5005F00F28780B3F56A
:10558400805F00F08680B3F5805F7FD8702B1AD0DF
:10559400702B7BD8602B50D0602B77D8502B3CD00D
:1055A400502B73D8402B58D0402B6FD8302B64D05D
:1055B400302B6BD8202B60D0202B67D8002B5CD0ED
:1055C400102B5AD062E07B6818683B6899683B6886
:1055D4005A683B68DB6800F00EFC7B681B689B68BC
:1055E400BB60BB6843F07703BB607B681B68BA6829
:1055F4009A604FE07B6818683B6899683B685A6812
:105604003B68DB6800F0F7FB7B681B689A687B6883
:105614001B6842F480429A603CE07B6818683B68EF
:1056240059683B68DB681A4600F06EFB7B681B68B0
:105634005021184600F0C5FB2CE07B6818683B68D5
:1056440059683B68DB681A4600F08CFB7B681B6872
:105654006021184600F0B5FB1CE07B6818683B68C5
:1056640059683B68DB681A4600F04EFB7B681B6890
:105674004021184600F0A5FB0CE07B681A683B68E3
:105684001B681946104600F09CFB03E00123FB73E2
:1056940000E000BF7B68012283F83D207B68002284
:1056A40083F83C20FB7B18461037BD4680BD80B490
:1056B40083B000AF786000BF0C37BD4680BC704734
:1056C40080B483B000AF786000BF0C37BD4680BCA7
:1056D400704780B483B000AF786000BF0C37BD461C
:1056E40080BC704780B483B000AF786000BF0C37D3
:1056F400BD4680BC704780B483B000AF786000BF03
:105704000C37BD4680BC704780B483B000AF78606E
:1057140000BF0C37BD4680BC704780B584B000AF75
:1057240078607B685B6AFB60FB685B6A7A689A42B4
:1057340007D1FB6801221A77FB68012283F83E2017
:105744002AE0FB689B6A7A689A4207D1FB680222C6
:105754001A77FB68012283F83F201DE0FB68DB6AAF
:105764007A689A4207D1FB6804221A77FB680122FF
:1057740083F8402010E0FB681B6B7A689A4207D1DB
:10578400FB6808221A77FB68012283F8412003E0B2
:10579400FB68012283F83D20F868FFF7B5FFFB683A
:1057A40000221A7700BF1037BD4680BD80B584B093
:1057B40000AF78607B685B6AFB60FB685B6A7A6851
:1057C4009A420BD1FB6801221A777B689B69002BF4
:1057D40036D1FB68012283F83E2031E0FB689B6AE6
:1057E4007A689A420BD1FB6802221A777B689B691C
:1057F400002B25D1FB68012283F83F2020E0FB68C1
:10580400DB6A7A689A420BD1FB6804221A777B68B8
:105814009B69002B14D1FB68012283F840200FE020
:10582400FB681B6B7A689A420AD1FB6808221A77D4
:105834007B689B69002B03D1FB68012283F841201C
:10584400F868FFF746FFFB6800221A7700BF10379D
:10585400BD4680BD80B584B000AF78607B685B6A6C
:10586400FB60FB685B6A7A689A4203D1FB68012299
:105874001A7719E0FB689B6A7A689A4203D1FB683D
:1058840002221A7710E0FB68DB6A7A689A4203D135
:10589400FB6804221A7707E0FB681B6B7A689A425C
:1058A40002D1FB6808221A77F868FFF71BFFFB6830
:1058B40000221A7700BF1037BD4680BD80B485B082
:1058C40000AF786039607B681B68FB607B68334A93
:1058D400934213D07B68324A93420FD07B68B3F172
:1058E400804F0BD07B682F4A934207D07B682E4AA7
:1058F400934203D07B682D4A934208D1FB6823F07E
:105904007003FB603B685B68FA681343FB607B6869
:10591400224A934213D07B68214A93420FD07B687A
:10592400B3F1804F0BD07B681E4A934207D07B684B
:105934001D4A934203D07B681C4A934208D1FB68FA
:1059440023F44073FB603B68DB68FA681343FB6035
:10595400FB6823F080023B685B691343FB607B6850
:10596400FA681A603B689A687B68DA623B681A686E
:105974007B689A627B68094A934203D07B68084A31
:10598400934203D13B681A697B681A637B680122DE
:105994005A6100BF1437BD4680BC7047002C0140DB
:1059A400003401400004004000080040000C0040A6
:1059B40080B487B000AF786039607B681B6A7B6114
:1059C4007B681B6A23F001027B681A627B685B6850
:1059D4003B617B689B69FB60FB6823F07003FB60A1
:1059E400FB6823F00303FB603B681B68FA681343FE
:1059F400FB607B6923F002037B613B689B687A69E7
:105A040013437B617B68204A934203D07B681F4A1F
:105A140093420CD17B6923F008037B613B68DB680C
:105A24007A6913437B617B6923F004037B617B68A0
:105A3400154A934203D07B68144A934211D13B69BF
:105A440023F480733B613B6923F400733B613B683F
:105A54005B693A6913433B613B689B693A69134349
:105A64003B617B683A695A607B68FA689A613B6873
:105A74005A687B685A637B687A691A6200BF1C376C
:105A8400BD4680BC704700BF002C0140003401407B
:105A940080B487B000AF786039607B681B6A7B6133
:105AA4007B681B6A23F010027B681A627B685B6860
:105AB4003B617B689B69FB60FB6823F4E043FB600C
:105AC400FB6823F44073FB603B681B681B02FA68A5
